:020000001628C0
:0E0006008312031321088A00200882000800DC
:1000140003208A110A128000840AA00A0319A10A83
:08002400F003031D0A28080087
:10002C008316031386010130831286000230FB0015
:10003C000430FC00BA30FD00FD0B2228FC0B2228FA
:10004C00FB0B22280000033086000230FB0004303A
:10005C00FC00BA30FD00FD0B3128FC0B3128FB0BEA
:10006C0031280000023086000230FB000430FC0016
:10007C00BA30FD00FD0B4028FC0B4028FB0B402840
:10008C000000063086000230FB000430FC00BA3061
:10009C00FD00FD0B4F28FC0B4F28FB0B4F280000DD
:1000AC00043086000230FB000430FC00BA30FD0046
:1000BC00FD0B5E28FC0B5E28FB0B5E2800000C3051
:1000CC0086000230FB000430FC00BA30FD00FD0B52
:1000DC006D28FC0B6D28FB0B6D280000083086008A
:1000EC000230FB000430FC00BA30FD00FD0B7C2814
:1000FC00FC0B7C28FB0B7C280000093086000230AE
:10010C00FB000430FC00BA30FD00FD0B8B28FC0B0F
:0C011C008B28FB0B8B280000192893286F
:02400E004A2F37
:00000001FF
